{
  "contractName": "Banker",
  "abi": [
    {
      "constant": false,
      "inputs": [
        {
          "name": "amount",
          "type": "uint256"
        }
      ],
      "name": "deposit",
      "outputs": [],
      "payable": false,
      "stateMutability": "nonpayable",
      "type": "function"
    },
    {
      "constant": false,
      "inputs": [
        {
          "name": "amount",
          "type": "uint256"
        }
      ],
      "name": "withdraw",
      "outputs": [],
      "payable": false,
      "stateMutability": "nonpayable",
      "type": "function"
    },
    {
      "constant": true,
      "inputs": [],
      "name": "getBalance",
      "outputs": [
        {
          "name": "",
          "type": "uint256"
        }
      ],
      "payable": false,
      "stateMutability": "view",
      "type": "function"
    }
  ],
  "bytecode": "0x608060405234801561001057600080fd5b50610462806100206000396000f300608060405260043610610057576000357c0100000000000000000000000000000000000000000000000000000000900463ffffffff16806312065fe01461005c5780632e1a7d4d14610087578063b6b55f25146100b4575b600080fd5b34801561006857600080fd5b506100716100e1565b6040518082815260200191505060405180910390f35b34801561009357600080fd5b506100b26004803603810190808035906020019092919050505061012a565b005b3480156100c057600080fd5b506100df600480360381019080803590602001909291905050506102ad565b005b60008060003373ffffffffffffffffffffffffffffffffffffffff1673ffffffffffffffffffffffffffffffffffffffff16815260200190815260200160002060000154905090565b6000811115156101a2576040517f08c379a00000000000000000000000000000000000000000000000000000000081526004018080602001828103825260188152602001807f43616e6e6f74207769746864726177206e6f7468696e672e000000000000000081525060200191505060405180910390fd5b806000803373ffffffffffffffffffffffffffffffffffffffff1673ffffffffffffffffffffffffffffffffffffffff168152602001908152602001600020600001541015151561025b576040517f08c379a000000000000000000000000000000000000000000000000000000000815260040180806020018281038252601b8152602001807f43616e6e6f74206f76657264726177206f6e206163636f756e742e000000000081525060200191505060405180910390fd5b806000803373ffffffffffffffffffffffffffffffffffffffff1673ffffffffffffffffffffffffffffffffffffffff1681526020019081526020016000206000016000828254039250508190555050565b60008082111515610326576040517f08c379a00000000000000000000000000000000000000000000000000000000081526004018080602001828103825260178152602001807f43616e6e6f74206465706f736974206e6f7468696e672e00000000000000000081525060200191505060405180910390fd5b6000803373ffffffffffffffffffffffffffffffffffffffff1673ffffffffffffffffffffffffffffffffffffffff168152602001908152602001600020600001549050808282011115156103e3576040517f08c379a00000000000000000000000000000000000000000000000000000000081526004018080602001828103825260178152602001807f546f6f206d756368206d6f6e657920616c72656164792e00000000000000000081525060200191505060405180910390fd5b816000803373ffffffffffffffffffffffffffffffffffffffff1673ffffffffffffffffffffffffffffffffffffffff1681526020019081526020016000206000016000828254019250508190555050505600a165627a7a72305820af0557ad41c44645c0c49dd4a26d8ece03908bdc4a0e318413b3e751f1e853c30029",
  "source": "pragma solidity ^0.4.22;\n\ncontract Banker {\n    struct Account {\n        uint balance;\n    }\n\n    mapping(address => Account) accounts;\n\n    function deposit(uint amount) public {\n        require(amount > 0, \"Cannot deposit nothing.\");\n\n        uint balance = accounts[msg.sender].balance;\n        require(balance + amount > balance, \"Too much money already.\");\n\n        accounts[msg.sender].balance += amount;\n    }\n\n    function withdraw(uint amount) public {\n        require(amount > 0, \"Cannot withdraw nothing.\");\n        require(accounts[msg.sender].balance >= amount, \"Cannot overdraw on account.\");\n\n        accounts[msg.sender].balance -= amount;\n    }\n\n    function getBalance() public view returns (uint){\n        return accounts[msg.sender].balance;\n    }\n}",
  "sourcePath": "/Users/hubel/Documents/SDU/Blockchain/Assignment 2/EthereumApplication/Banker/contracts/Banker.sol",
  "compiler": {
    "name": "solc",
    "version": "0.4.24+commit.e67f0147.Emscripten.clang"
  },
  "schemaVersion": "2.0.1",
  "updatedAt": "2018-11-05T18:58:31.925Z"
}